{
  "_format": "hh-sol-artifact-1",
  "contractName": "EventFunding",
  "sourceName": "contracts/EventFunding.sol",
  "abi": [
    {
      "anonymous": false,
      "inputs": [
        {
          "indexed": true,
          "internalType": "address",
          "name": "from",
          "type": "address"
        },
        {
          "indexed": false,
          "internalType": "address",
          "name": "to",
          "type": "address"
        }
      ],
      "name": "NewFunder",
      "type": "event"
    },
    {
      "anonymous": false,
      "inputs": [
        {
          "indexed": true,
          "internalType": "address",
          "name": "from",
          "type": "address"
        },
        {
          "indexed": false,
          "internalType": "uint256",
          "name": "projectId",
          "type": "uint256"
        }
      ],
      "name": "ProjectCreated",
      "type": "event"
    },
    {
      "inputs": [
        {
          "internalType": "string",
          "name": "title",
          "type": "string"
        },
        {
          "internalType": "string",
          "name": "description",
          "type": "string"
        },
        {
          "internalType": "uint256",
          "name": "goals",
          "type": "uint256"
        },
        {
          "internalType": "uint256",
          "name": "deadline",
          "type": "uint256"
        },
        {
          "internalType": "uint256",
          "name": "date",
          "type": "uint256"
        },
        {
          "internalType": "string",
          "name": "image",
          "type": "string"
        },
        {
          "internalType": "string",
          "name": "content",
          "type": "string"
        }
      ],
      "name": "createProject",
      "outputs": [
        {
          "internalType": "uint256",
          "name": "",
          "type": "uint256"
        }
      ],
      "stateMutability": "nonpayable",
      "type": "function"
    },
    {
      "inputs": [
        {
          "internalType": "string",
          "name": "title",
          "type": "string"
        },
        {
          "internalType": "string",
          "name": "description",
          "type": "string"
        },
        {
          "internalType": "uint256",
          "name": "goals",
          "type": "uint256"
        },
        {
          "internalType": "uint256",
          "name": "deadline",
          "type": "uint256"
        },
        {
          "internalType": "uint256",
          "name": "date",
          "type": "uint256"
        },
        {
          "internalType": "string",
          "name": "image",
          "type": "string"
        },
        {
          "internalType": "string",
          "name": "content",
          "type": "string"
        },
        {
          "internalType": "bool",
          "name": "is_over_goals",
          "type": "bool"
        },
        {
          "internalType": "bool",
          "name": "is_zero_allowed",
          "type": "bool"
        }
      ],
      "name": "createProject",
      "outputs": [
        {
          "internalType": "uint256",
          "name": "",
          "type": "uint256"
        }
      ],
      "stateMutability": "nonpayable",
      "type": "function"
    },
    {
      "inputs": [
        {
          "internalType": "uint256",
          "name": "id",
          "type": "uint256"
        },
        {
          "internalType": "string",
          "name": "message",
          "type": "string"
        },
        {
          "internalType": "uint256",
          "name": "date",
          "type": "uint256"
        }
      ],
      "name": "fundToProject",
      "outputs": [],
      "stateMutability": "payable",
      "type": "function"
    },
    {
      "inputs": [],
      "name": "getAccounts",
      "outputs": [
        {
          "internalType": "address[]",
          "name": "",
          "type": "address[]"
        }
      ],
      "stateMutability": "view",
      "type": "function"
    },
    {
      "inputs": [
        {
          "internalType": "uint256",
          "name": "id",
          "type": "uint256"
        }
      ],
      "name": "getFunders",
      "outputs": [
        {
          "components": [
            {
              "internalType": "address",
              "name": "owner",
              "type": "address"
            },
            {
              "internalType": "uint256",
              "name": "amount",
              "type": "uint256"
            },
            {
              "internalType": "string",
              "name": "message",
              "type": "string"
            },
            {
              "internalType": "uint256",
              "name": "date",
              "type": "uint256"
            }
          ],
          "internalType": "struct EventFunding.Fund[]",
          "name": "",
          "type": "tuple[]"
        }
      ],
      "stateMutability": "view",
      "type": "function"
    },
    {
      "inputs": [
        {
          "internalType": "uint256",
          "name": "id",
          "type": "uint256"
        }
      ],
      "name": "getProject",
      "outputs": [
        {
          "components": [
            {
              "internalType": "uint256",
              "name": "id",
              "type": "uint256"
            },
            {
              "internalType": "address",
              "name": "owner",
              "type": "address"
            },
            {
              "internalType": "string",
              "name": "title",
              "type": "string"
            },
            {
              "internalType": "string",
              "name": "description",
              "type": "string"
            },
            {
              "internalType": "string",
              "name": "content",
              "type": "string"
            },
            {
              "internalType": "uint256",
              "name": "goals",
              "type": "uint256"
            },
            {
              "internalType": "uint256",
              "name": "date",
              "type": "uint256"
            },
            {
              "internalType": "uint256",
              "name": "deadline",
              "type": "uint256"
            },
            {
              "internalType": "uint256",
              "name": "amount",
              "type": "uint256"
            },
            {
              "internalType": "string",
              "name": "image",
              "type": "string"
            },
            {
              "components": [
                {
                  "internalType": "address",
                  "name": "owner",
                  "type": "address"
                },
                {
                  "internalType": "uint256",
                  "name": "amount",
                  "type": "uint256"
                },
                {
                  "internalType": "string",
                  "name": "message",
                  "type": "string"
                },
                {
                  "internalType": "uint256",
                  "name": "date",
                  "type": "uint256"
                }
              ],
              "internalType": "struct EventFunding.Fund[]",
              "name": "funds",
              "type": "tuple[]"
            },
            {
              "internalType": "bool",
              "name": "is_over_goals",
              "type": "bool"
            },
            {
              "internalType": "bool",
              "name": "is_zero_allowed",
              "type": "bool"
            }
          ],
          "internalType": "struct EventFunding.Project",
          "name": "",
          "type": "tuple"
        }
      ],
      "stateMutability": "view",
      "type": "function"
    },
    {
      "inputs": [],
      "name": "getProjects",
      "outputs": [
        {
          "components": [
            {
              "internalType": "uint256",
              "name": "id",
              "type": "uint256"
            },
            {
              "internalType": "address",
              "name": "owner",
              "type": "address"
            },
            {
              "internalType": "string",
              "name": "title",
              "type": "string"
            },
            {
              "internalType": "string",
              "name": "description",
              "type": "string"
            },
            {
              "internalType": "string",
              "name": "content",
              "type": "string"
            },
            {
              "internalType": "uint256",
              "name": "goals",
              "type": "uint256"
            },
            {
              "internalType": "uint256",
              "name": "date",
              "type": "uint256"
            },
            {
              "internalType": "uint256",
              "name": "deadline",
              "type": "uint256"
            },
            {
              "internalType": "uint256",
              "name": "amount",
              "type": "uint256"
            },
            {
              "internalType": "string",
              "name": "image",
              "type": "string"
            },
            {
              "components": [
                {
                  "internalType": "address",
                  "name": "owner",
                  "type": "address"
                },
                {
                  "internalType": "uint256",
                  "name": "amount",
                  "type": "uint256"
                },
                {
                  "internalType": "string",
                  "name": "message",
                  "type": "string"
                },
                {
                  "internalType": "uint256",
                  "name": "date",
                  "type": "uint256"
                }
              ],
              "internalType": "struct EventFunding.Fund[]",
              "name": "funds",
              "type": "tuple[]"
            },
            {
              "internalType": "bool",
              "name": "is_over_goals",
              "type": "bool"
            },
            {
              "internalType": "bool",
              "name": "is_zero_allowed",
              "type": "bool"
            }
          ],
          "internalType": "struct EventFunding.Project[]",
          "name": "",
          "type": "tuple[]"
        }
      ],
      "stateMutability": "view",
      "type": "function"
    },
    {
      "inputs": [],
      "name": "getTotalAccounts",
      "outputs": [
        {
          "internalType": "uint256",
          "name": "",
          "type": "uint256"
        }
      ],
      "stateMutability": "view",
      "type": "function"
    },
    {
      "inputs": [],
      "name": "getTotalProjects",
      "outputs": [
        {
          "internalType": "uint256",
          "name": "",
          "type": "uint256"
        }
      ],
      "stateMutability": "view",
      "type": "function"
    },
    {
      "inputs": [
        {
          "internalType": "string",
          "name": "title",
          "type": "string"
        },
        {
          "internalType": "string",
          "name": "description",
          "type": "string"
        },
        {
          "internalType": "uint256",
          "name": "goals",
          "type": "uint256"
        },
        {
          "internalType": "uint256",
          "name": "deadline",
          "type": "uint256"
        },
        {
          "internalType": "uint256",
          "name": "date",
          "type": "uint256"
        },
        {
          "internalType": "string",
          "name": "image",
          "type": "string"
        },
        {
          "internalType": "string",
          "name": "content",
          "type": "string"
        },
        {
          "internalType": "bool",
          "name": "is_over_goals",
          "type": "bool"
        },
        {
          "internalType": "bool",
          "name": "is_zero_allowed",
          "type": "bool"
        }
      ],
      "name": "newProject",
      "outputs": [
        {
          "internalType": "uint256",
          "name": "",
          "type": "uint256"
        }
      ],
      "stateMutability": "nonpayable",
      "type": "function"
    }
  ],
  "bytecode": "0x6080604052348015600f57600080fd5b506126768061001f6000396000f3fe6080604052600436106100915760003560e01c806397caaf871161005957806397caaf87146101a3578063c96a2bc9146101e0578063da6841aa146101fc578063dcc6012814610227578063f0f3f2c81461025257610091565b80633a7b6c7414610096578063513dc2ea146100d3578063812739a2146101105780638a48ac031461013b578063947c49ee14610166575b600080fd5b3480156100a257600080fd5b506100bd60048036038101906100b8919061154c565b61028f565b6040516100ca919061177e565b60405180910390f35b3480156100df57600080fd5b506100fa60048036038101906100f591906118d5565b6103ff565b60405161010791906119f6565b60405180910390f35b34801561011c57600080fd5b50610125610420565b60405161013291906119f6565b60405180910390f35b34801561014757600080fd5b5061015061042d565b60405161015d9190611ac0565b60405180910390f35b34801561017257600080fd5b5061018d60048036038101906101889190611b1a565b6104bb565b60405161019a91906119f6565b60405180910390f35b3480156101af57600080fd5b506101ca60048036038101906101c59190611b1a565b6104dd565b6040516101d791906119f6565b60405180910390f35b6101fa60048036038101906101f59190611c54565b61071a565b005b34801561020857600080fd5b50610211610944565b60405161021e91906119f6565b60405180910390f35b34801561023357600080fd5b5061023c610951565b6040516102499190611f4f565b60405180910390f35b34801561025e57600080fd5b506102796004803603810190610274919061154c565b610e96565b60405161028691906120a6565b60405180910390f35b6060600080838152602001908152602001600020600a01805480602002602001604051908101604052809291908181526020016000905b828210156103f457838290600052602060002090600402016040518060800160405290816000820160009054906101000a900473ffffffffffffffffffffffffffffffffffffffff1673ffffffffffffffffffffffffffffffffffffffff1673ffffffffffffffffffffffffffffffffffffffff16815260200160018201548152602001600282018054610359906120f7565b80601f0160208091040260200160405190810160405280929190818152602001828054610385906120f7565b80156103d25780601f106103a7576101008083540402835291602001916103d2565b820191906000526020600020905b8154815290600101906020018083116103b557829003601f168201915b50505050508152602001600382015481525050815260200190600101906102c6565b505050509050919050565b6000610413888888888888886000806104dd565b9050979650505050505050565b6000600180549050905090565b606060038054806020026020016040519081016040528092919081815260200182805480156104b157602002820191906000526020600020905b8160009054906101000a900473ffffffffffffffffffffffffffffffffffffffff1673ffffffffffffffffffffffffffffffffffffffff1681526020019060010190808311610467575b5050505050905090565b60006104ce8a8a8a8a8a8a8a8a8a6104dd565b90509998505050505050505050565b6000806104e8611324565b90506000806000838152602001908152602001600020905042816007015410610546576040517f08c379a000000000000000000000000000000000000000000000000000000000815260040161053d906121ab565b60405180910390fd5b818160000181905550338160010160006101000a81548173ffffffffffffffffffffffffffffffffffffffff021916908373ffffffffffffffffffffffffffffffffffffffff1602179055508b8160020190816105a39190612377565b508a8160030190816105b59190612377565b50858160040190816105c79190612377565b5089816005018190555087816006018190555088816007018190555060008160080181905550868160090190816105fe9190612377565b508481600b0160006101000a81548160ff0219169083151502179055508381600b0160016101000a81548160ff0219169083151502179055508060010160009054906101000a900473ffffffffffffffffffffffffffffffffffffffff1673ffffffffffffffffffffffffffffffffffffffff167f20bfd29f3d906f96fc35742fac45a554b19cbd4e21f8c4c1d84cb58fdfc32c8982600001546040516106a591906119f6565b60405180910390a26106da8160010160009054906101000a900473ffffffffffffffffffffffffffffffffffffffff16611370565b6001829080600181540180825580915050600190039060005260206000200160009091909190915055600180549050925050509998505050505050505050565b600034905060008060008681526020019081526020016000209050600060405180608001604052803373ffffffffffffffffffffffffffffffffffffffff16815260200184815260200186815260200185815250905081600a0181908060018154018082558091505060019003906000526020600020906004020160009091909190915060008201518160000160006101000a81548173ffffffffffffffffffffffffffffffffffffffff021916908373ffffffffffffffffffffffffffffffffffffffff1602179055506020820151816001015560408201518160020190816108049190612377565b5060608201518160030155505060008260010160009054906101000a900473ffffffffffffffffffffffffffffffffffffffff1673ffffffffffffffffffffffffffffffffffffffff168460405161085b9061247a565b60006040518083038185875af1925050503d8060008114610898576040519150601f19603f3d011682016040523d82523d6000602084013e61089d565b606091505b5050905080156108c0578383600801546108b791906124be565b83600801819055505b6108c933611370565b3373ffffffffffffffffffffffffffffffffffffffff167ffc673e1cadd48c0df7d560dccbb844ada790810fa908d3d2b90da0fc65e3a5608460010160009054906101000a900473ffffffffffffffffffffffffffffffffffffffff166040516109339190612501565b60405180910390a250505050505050565b6000600380549050905090565b6060600060018054905067ffffffffffffffff811115610974576109736117aa565b5b6040519080825280602002602001820160405280156109ad57816020015b61099a611480565b8152602001906001900390816109925790505b50905060005b600180549050811015610e8e576000806000600184815481106109d9576109d861251c565b5b90600052602060002001548152602001908152602001600020905080604051806101a0016040529081600082015481526020016001820160009054906101000a900473ffffffffffffffffffffffffffffffffffffffff1673ffffffffffffffffffffffffffffffffffffffff1673ffffffffffffffffffffffffffffffffffffffff168152602001600282018054610a71906120f7565b80601f0160208091040260200160405190810160405280929190818152602001828054610a9d906120f7565b8015610aea5780601f10610abf57610100808354040283529160200191610aea565b820191906000526020600020905b815481529060010190602001808311610acd57829003601f168201915b50505050508152602001600382018054610b03906120f7565b80601f0160208091040260200160405190810160405280929190818152602001828054610b2f906120f7565b8015610b7c5780601f10610b5157610100808354040283529160200191610b7c565b820191906000526020600020905b815481529060010190602001808311610b5f57829003601f168201915b50505050508152602001600482018054610b95906120f7565b80601f0160208091040260200160405190810160405280929190818152602001828054610bc1906120f7565b8015610c0e5780601f10610be357610100808354040283529160200191610c0e565b820191906000526020600020905b815481529060010190602001808311610bf157829003601f168201915b5050505050815260200160058201548152602001600682015481526020016007820154815260200160088201548152602001600982018054610c4f906120f7565b80601f0160208091040260200160405190810160405280929190818152602001828054610c7b906120f7565b8015610cc85780601f10610c9d57610100808354040283529160200191610cc8565b820191906000526020600020905b815481529060010190602001808311610cab57829003601f168201915b50505050508152602001600a8201805480602002602001604051908101604052809291908181526020016000905b82821015610e2457838290600052602060002090600402016040518060800160405290816000820160009054906101000a900473ffffffffffffffffffffffffffffffffffffffff1673ffffffffffffffffffffffffffffffffffffffff1673ffffffffffffffffffffffffffffffffffffffff16815260200160018201548152602001600282018054610d89906120f7565b80601f0160208091040260200160405190810160405280929190818152602001828054610db5906120f7565b8015610e025780601f10610dd757610100808354040283529160200191610e02565b820191906000526020600020905b815481529060010190602001808311610de557829003601f168201915b5050505050815260200160038201548152505081526020019060010190610cf6565b505050508152602001600b820160009054906101000a900460ff16151515158152602001600b820160019054906101000a900460ff161515151581525050838381518110610e7557610e7461251c565b5b60200260200101819052505080806001019150506109b3565b508091505090565b610e9e611480565b600080838152602001908152602001600020604051806101a0016040529081600082015481526020016001820160009054906101000a900473ffffffffffffffffffffffffffffffffffffffff1673ffffffffffffffffffffffffffffffffffffffff1673ffffffffffffffffffffffffffffffffffffffff168152602001600282018054610f2c906120f7565b80601f0160208091040260200160405190810160405280929190818152602001828054610f58906120f7565b8015610fa55780601f10610f7a57610100808354040283529160200191610fa5565b820191906000526020600020905b815481529060010190602001808311610f8857829003601f168201915b50505050508152602001600382018054610fbe906120f7565b80601f0160208091040260200160405190810160405280929190818152602001828054610fea906120f7565b80156110375780601f1061100c57610100808354040283529160200191611037565b820191906000526020600020905b81548152906001019060200180831161101a57829003601f168201915b50505050508152602001600482018054611050906120f7565b80601f016020809104026020016040519081016040528092919081815260200182805461107c906120f7565b80156110c95780601f1061109e576101008083540402835291602001916110c9565b820191906000526020600020905b8154815290600101906020018083116110ac57829003601f168201915b505050505081526020016005820154815260200160068201548152602001600782015481526020016008820154815260200160098201805461110a906120f7565b80601f0160208091040260200160405190810160405280929190818152602001828054611136906120f7565b80156111835780601f1061115857610100808354040283529160200191611183565b820191906000526020600020905b81548152906001019060200180831161116657829003601f168201915b50505050508152602001600a8201805480602002602001604051908101604052809291908181526020016000905b828210156112df57838290600052602060002090600402016040518060800160405290816000820160009054906101000a900473ffffffffffffffffffffffffffffffffffffffff1673ffffffffffffffffffffffffffffffffffffffff1673ffffffffffffffffffffffffffffffffffffffff16815260200160018201548152602001600282018054611244906120f7565b80601f0160208091040260200160405190810160405280929190818152602001828054611270906120f7565b80156112bd5780601f10611292576101008083540402835291602001916112bd565b820191906000526020600020905b8154815290600101906020018083116112a057829003601f168201915b50505050508152602001600382015481525050815260200190600101906111b1565b505050508152602001600b820160009054906101000a900460ff16151515158152602001600b820160019054906101000a900460ff1615151515815250509050919050565b600080423360405160200161133a9291906125b4565b6040516020818303038152906040528051906020012060001c905068056bc75e2d631000008161136a919061260f565b91505090565b600260008273ffffffffffffffffffffffffffffffffffffffff1673ffffffffffffffffffffffffffffffffffffffff16815260200190815260200160002060009054906101000a900460ff1661147d576001600260008373ffffffffffffffffffffffffffffffffffffffff1673ffffffffffffffffffffffffffffffffffffffff16815260200190815260200160002060006101000a81548160ff0219169083151502179055506003819080600181540180825580915050600190039060005260206000200160009091909190916101000a81548173ffffffffffffffffffffffffffffffffffffffff021916908373ffffffffffffffffffffffffffffffffffffffff1602179055505b50565b604051806101a0016040528060008152602001600073ffffffffffffffffffffffffffffffffffffffff1681526020016060815260200160608152602001606081526020016000815260200160008152602001600081526020016000815260200160608152602001606081526020016000151581526020016000151581525090565b6000604051905090565b600080fd5b600080fd5b6000819050919050565b61152981611516565b811461153457600080fd5b50565b60008135905061154681611520565b92915050565b6000602082840312156115625761156161150c565b5b600061157084828501611537565b91505092915050565b600081519050919050565b600082825260208201905092915050565b6000819050602082019050919050565b600073ffffffffffffffffffffffffffffffffffffffff82169050919050565b60006115d0826115a5565b9050919050565b6115e0816115c5565b82525050565b6115ef81611516565b82525050565b600081519050919050565b600082825260208201905092915050565b60005b8381101561162f578082015181840152602081019050611614565b60008484015250505050565b6000601f19601f8301169050919050565b6000611657826115f5565b6116618185611600565b9350611671818560208601611611565b61167a8161163b565b840191505092915050565b600060808301600083015161169d60008601826115d7565b5060208301516116b060208601826115e6565b50604083015184820360408601526116c8828261164c565b91505060608301516116dd60608601826115e6565b508091505092915050565b60006116f48383611685565b905092915050565b6000602082019050919050565b600061171482611579565b61171e8185611584565b93508360208202850161173085611595565b8060005b8581101561176c578484038952815161174d85826116e8565b9450611758836116fc565b925060208a01995050600181019050611734565b50829750879550505050505092915050565b600060208201905081810360008301526117988184611709565b905092915050565b600080fd5b600080fd5b7f4e487b7100000000000000000000000000000000000000000000000000000000600052604160045260246000fd5b6117e28261163b565b810181811067ffffffffffffffff82111715611801576118006117aa565b5b80604052505050565b6000611814611502565b905061182082826117d9565b919050565b600067ffffffffffffffff8211156118405761183f6117aa565b5b6118498261163b565b9050602081019050919050565b82818337600083830152505050565b600061187861187384611825565b61180a565b905082815260208101848484011115611894576118936117a5565b5b61189f848285611856565b509392505050565b600082601f8301126118bc576118bb6117a0565b5b81356118cc848260208601611865565b91505092915050565b600080600080600080600060e0888a0312156118f4576118f361150c565b5b600088013567ffffffffffffffff81111561191257611911611511565b5b61191e8a828b016118a7565b975050602088013567ffffffffffffffff81111561193f5761193e611511565b5b61194b8a828b016118a7565b965050604061195c8a828b01611537565b955050606061196d8a828b01611537565b945050608061197e8a828b01611537565b93505060a088013567ffffffffffffffff81111561199f5761199e611511565b5b6119ab8a828b016118a7565b92505060c088013567ffffffffffffffff8111156119cc576119cb611511565b5b6119d88a828b016118a7565b91505092959891949750929550565b6119f081611516565b82525050565b6000602082019050611a0b60008301846119e7565b92915050565b600081519050919050565b600082825260208201905092915050565b6000819050602082019050919050565b6000611a4983836115d7565b60208301905092915050565b6000602082019050919050565b6000611a6d82611a11565b611a778185611a1c565b9350611a8283611a2d565b8060005b83811015611ab3578151611a9a8882611a3d565b9750611aa583611a55565b925050600181019050611a86565b5085935050505092915050565b60006020820190508181036000830152611ada8184611a62565b905092915050565b60008115159050919050565b611af781611ae2565b8114611b0257600080fd5b50565b600081359050611b1481611aee565b92915050565b60008060008060008060008060006101208a8c031215611b3d57611b3c61150c565b5b60008a013567ffffffffffffffff811115611b5b57611b5a611511565b5b611b678c828d016118a7565b99505060208a013567ffffffffffffffff811115611b8857611b87611511565b5b611b948c828d016118a7565b9850506040611ba58c828d01611537565b9750506060611bb68c828d01611537565b9650506080611bc78c828d01611537565b95505060a08a013567ffffffffffffffff811115611be857611be7611511565b5b611bf48c828d016118a7565b94505060c08a013567ffffffffffffffff811115611c1557611c14611511565b5b611c218c828d016118a7565b93505060e0611c328c828d01611b05565b925050610100611c448c828d01611b05565b9150509295985092959850929598565b600080600060608486031215611c6d57611c6c61150c565b5b6000611c7b86828701611537565b935050602084013567ffffffffffffffff811115611c9c57611c9b611511565b5b611ca8868287016118a7565b9250506040611cb986828701611537565b9150509250925092565b600081519050919050565b600082825260208201905092915050565b6000819050602082019050919050565b600082825260208201905092915050565b6000611d0b82611579565b611d158185611cef565b935083602082028501611d2785611595565b8060005b85811015611d635784840389528151611d4485826116e8565b9450611d4f836116fc565b925060208a01995050600181019050611d2b565b50829750879550505050505092915050565b611d7e81611ae2565b82525050565b60006101a083016000830151611d9d60008601826115e6565b506020830151611db060208601826115d7565b5060408301518482036040860152611dc8828261164c565b91505060608301518482036060860152611de2828261164c565b91505060808301518482036080860152611dfc828261164c565b91505060a0830151611e1160a08601826115e6565b5060c0830151611e2460c08601826115e6565b5060e0830151611e3760e08601826115e6565b50610100830151611e4c6101008601826115e6565b50610120830151848203610120860152611e66828261164c565b915050610140830151848203610140860152611e828282611d00565b915050610160830151611e99610160860182611d75565b50610180830151611eae610180860182611d75565b508091505092915050565b6000611ec58383611d84565b905092915050565b6000602082019050919050565b6000611ee582611cc3565b611eef8185611cce565b935083602082028501611f0185611cdf565b8060005b85811015611f3d5784840389528151611f1e8582611eb9565b9450611f2983611ecd565b925060208a01995050600181019050611f05565b50829750879550505050505092915050565b60006020820190508181036000830152611f698184611eda565b905092915050565b60006101a083016000830151611f8a60008601826115e6565b506020830151611f9d60208601826115d7565b5060408301518482036040860152611fb5828261164c565b91505060608301518482036060860152611fcf828261164c565b91505060808301518482036080860152611fe9828261164c565b91505060a0830151611ffe60a08601826115e6565b5060c083015161201160c08601826115e6565b5060e083015161202460e08601826115e6565b506101008301516120396101008601826115e6565b50610120830151848203610120860152612053828261164c565b91505061014083015184820361014086015261206f8282611d00565b915050610160830151612086610160860182611d75565b5061018083015161209b610180860182611d75565b508091505092915050565b600060208201905081810360008301526120c08184611f71565b905092915050565b7f4e487b7100000000000000000000000000000000000000000000000000000000600052602260045260246000fd5b6000600282049050600182168061210f57607f821691505b602082108103612122576121216120c8565b5b50919050565b600082825260208201905092915050565b7f446561646c696e652073686f756c6420626520696e207468652066757475726560008201527f2e00000000000000000000000000000000000000000000000000000000000000602082015250565b6000612195602183612128565b91506121a082612139565b604082019050919050565b600060208201905081810360008301526121c481612188565b9050919050565b60008190508160005260206000209050919050565b60006020601f8301049050919050565b600082821b905092915050565b60006008830261222d7fffffffffffffffffffffffffffffffffffffffffffffffffffffffffffffffff826121f0565b61223786836121f0565b95508019841693508086168417925050509392505050565b6000819050919050565b600061227461226f61226a84611516565b61224f565b611516565b9050919050565b6000819050919050565b61228e83612259565b6122a261229a8261227b565b8484546121fd565b825550505050565b600090565b6122b76122aa565b6122c2818484612285565b505050565b5b818110156122e6576122db6000826122af565b6001810190506122c8565b5050565b601f82111561232b576122fc816121cb565b612305846121e0565b81016020851015612314578190505b612328612320856121e0565b8301826122c7565b50505b505050565b600082821c905092915050565b600061234e60001984600802612330565b1980831691505092915050565b6000612367838361233d565b9150826002028217905092915050565b612380826115f5565b67ffffffffffffffff811115612399576123986117aa565b5b6123a382546120f7565b6123ae8282856122ea565b600060209050601f8311600181146123e157600084156123cf578287015190505b6123d9858261235b565b865550612441565b601f1984166123ef866121cb565b60005b82811015612417578489015182556001820191506020850194506020810190506123f2565b868310156124345784890151612430601f89168261233d565b8355505b6001600288020188555050505b505050505050565b600081905092915050565b50565b6000612464600083612449565b915061246f82612454565b600082019050919050565b600061248582612457565b9150819050919050565b7f4e487b7100000000000000000000000000000000000000000000000000000000600052601160045260246000fd5b60006124c982611516565b91506124d483611516565b92508282019050808211156124ec576124eb61248f565b5b92915050565b6124fb816115c5565b82525050565b600060208201905061251660008301846124f2565b92915050565b7f4e487b7100000000000000000000000000000000000000000000000000000000600052603260045260246000fd5b6000819050919050565b61256661256182611516565b61254b565b82525050565b60008160601b9050919050565b60006125848261256c565b9050919050565b600061259682612579565b9050919050565b6125ae6125a9826115c5565b61258b565b82525050565b60006125c08285612555565b6020820191506125d0828461259d565b6014820191508190509392505050565b7f4e487b7100000000000000000000000000000000000000000000000000000000600052601260045260246000fd5b600061261a82611516565b915061262583611516565b925082612635576126346125e0565b5b82820690509291505056fea264697066735822122083dbe32bd000aa10fda19a1096aedb3d0f97053ce0fba6dd6846795207c6102864736f6c634300081b0033",
  "linkReferences": {},
  "deployedLinkReferences": {}
}